{
  "_format": "hh-sol-artifact-1",
  "contractName": "SignatureValidator",
  "sourceName": "contracts/SignatureVerifier.sol",
  "abi": [
    {
      "inputs": [
        {
          "internalType": "bytes32",
          "name": "_messageHash",
          "type": "bytes32"
        }
      ],
      "name": "getEthSignedMessageHash",
      "outputs": [
        {
          "internalType": "bytes32",
          "name": "",
          "type": "bytes32"
        }
      ],
      "stateMutability": "pure",
      "type": "function"
    },
    {
      "inputs": [
        {
          "internalType": "address",
          "name": "_to",
          "type": "address"
        },
        {
          "internalType": "uint256",
          "name": "_tokenId",
          "type": "uint256"
        },
        {
          "internalType": "uint256",
          "name": "_issuingTime",
          "type": "uint256"
        },
        {
          "internalType": "uint256",
          "name": "_nonce",
          "type": "uint256"
        }
      ],
      "name": "getMessageHash",
      "outputs": [
        {
          "internalType": "bytes32",
          "name": "",
          "type": "bytes32"
        }
      ],
      "stateMutability": "pure",
      "type": "function"
    },
    {
      "inputs": [
        {
          "internalType": "bytes32",
          "name": "_ethSignedMessageHash",
          "type": "bytes32"
        },
        {
          "internalType": "bytes",
          "name": "_signature",
          "type": "bytes"
        }
      ],
      "name": "recoverSigner",
      "outputs": [
        {
          "internalType": "address",
          "name": "",
          "type": "address"
        }
      ],
      "stateMutability": "pure",
      "type": "function"
    },
    {
      "inputs": [
        {
          "internalType": "bytes",
          "name": "sig",
          "type": "bytes"
        }
      ],
      "name": "splitSignature",
      "outputs": [
        {
          "internalType": "bytes32",
          "name": "r",
          "type": "bytes32"
        },
        {
          "internalType": "bytes32",
          "name": "s",
          "type": "bytes32"
        },
        {
          "internalType": "uint8",
          "name": "v",
          "type": "uint8"
        }
      ],
      "stateMutability": "pure",
      "type": "function"
    },
    {
      "inputs": [
        {
          "internalType": "address",
          "name": "_signer",
          "type": "address"
        },
        {
          "internalType": "address",
          "name": "_to",
          "type": "address"
        },
        {
          "internalType": "uint256",
          "name": "_tokenId",
          "type": "uint256"
        },
        {
          "internalType": "uint256",
          "name": "_issuingTime",
          "type": "uint256"
        },
        {
          "internalType": "uint256",
          "name": "_nonce",
          "type": "uint256"
        },
        {
          "internalType": "bytes",
          "name": "signature",
          "type": "bytes"
        }
      ],
      "name": "verifyAuthorization",
      "outputs": [
        {
          "internalType": "bool",
          "name": "",
          "type": "bool"
        }
      ],
      "stateMutability": "pure",
      "type": "function"
    }
  ],
  "bytecode": "0x608060405234801561001057600080fd5b50610a22806100206000396000f3fe608060405234801561001057600080fd5b50600436106100575760003560e01c806397aba7f91461005c578063a7bb58031461008c578063dd881845146100be578063f440be04146100ee578063fa5408011461011e575b600080fd5b61007660048036038101906100719190610482565b61014e565b604051610083919061051f565b60405180910390f35b6100a660048036038101906100a1919061053a565b6101bd565b6040516100b5939291906105ae565b60405180910390f35b6100d860048036038101906100d39190610647565b610225565b6040516100e5919061070b565b60405180910390f35b61010860048036038101906101039190610726565b610289565b604051610115919061078d565b60405180910390f35b610138600480360381019061013391906107a8565b6102c2565b604051610145919061078d565b60405180910390f35b60008060008061015d856101bd565b9250925092506001868285856040516000815260200160405260405161018694939291906107d5565b6020604051602081039080840390855afa1580156101a8573d6000803e3d6000fd5b50505060206040510351935050505092915050565b60008060006041845114610206576040517f08c379a00000000000000000000000000000000000000000000000000000000081526004016101fd90610877565b60405180910390fd5b6020840151925060408401519150606084015160001a90509193909250565b60008061023487878787610289565b90506000610241826102c2565b90508873ffffffffffffffffffffffffffffffffffffffff16610264828661014e565b73ffffffffffffffffffffffffffffffffffffffff1614925050509695505050505050565b6000848484846040516020016102a29493929190610900565b604051602081830303815290604052805190602001209050949350505050565b6000816040516020016102d591906109c6565b604051602081830303815290604052805190602001209050919050565b6000604051905090565b600080fd5b600080fd5b6000819050919050565b61031981610306565b811461032457600080fd5b50565b60008135905061033681610310565b92915050565b600080fd5b600080fd5b6000601f19601f8301169050919050565b7f4e487b7100000000000000000000000000000000000000000000000000000000600052604160045260246000fd5b61038f82610346565b810181811067ffffffffffffffff821117156103ae576103ad610357565b5b80604052505050565b60006103c16102f2565b90506103cd8282610386565b919050565b600067ffffffffffffffff8211156103ed576103ec610357565b5b6103f682610346565b9050602081019050919050565b82818337600083830152505050565b6000610425610420846103d2565b6103b7565b90508281526020810184848401111561044157610440610341565b5b61044c848285610403565b509392505050565b600082601f8301126104695761046861033c565b5b8135610479848260208601610412565b91505092915050565b60008060408385031215610499576104986102fc565b5b60006104a785828601610327565b925050602083013567ffffffffffffffff8111156104c8576104c7610301565b5b6104d485828601610454565b9150509250929050565b600073ffffffffffffffffffffffffffffffffffffffff82169050919050565b6000610509826104de565b9050919050565b610519816104fe565b82525050565b60006020820190506105346000830184610510565b92915050565b6000602082840312156105505761054f6102fc565b5b600082013567ffffffffffffffff81111561056e5761056d610301565b5b61057a84828501610454565b91505092915050565b61058c81610306565b82525050565b600060ff82169050919050565b6105a881610592565b82525050565b60006060820190506105c36000830186610583565b6105d06020830185610583565b6105dd604083018461059f565b949350505050565b6105ee816104fe565b81146105f957600080fd5b50565b60008135905061060b816105e5565b92915050565b6000819050919050565b61062481610611565b811461062f57600080fd5b50565b6000813590506106418161061b565b92915050565b60008060008060008060c08789031215610664576106636102fc565b5b600061067289828a016105fc565b965050602061068389828a016105fc565b955050604061069489828a01610632565b94505060606106a589828a01610632565b93505060806106b689828a01610632565b92505060a087013567ffffffffffffffff8111156106d7576106d6610301565b5b6106e389828a01610454565b9150509295509295509295565b60008115159050919050565b610705816106f0565b82525050565b600060208201905061072060008301846106fc565b92915050565b600080600080608085870312156107405761073f6102fc565b5b600061074e878288016105fc565b945050602061075f87828801610632565b935050604061077087828801610632565b925050606061078187828801610632565b91505092959194509250565b60006020820190506107a26000830184610583565b92915050565b6000602082840312156107be576107bd6102fc565b5b60006107cc84828501610327565b91505092915050565b60006080820190506107ea6000830187610583565b6107f7602083018661059f565b6108046040830185610583565b6108116060830184610583565b95945050505050565b600082825260208201905092915050565b7f696e76616c6964207369676e6174757265206c656e6774680000000000000000600082015250565b600061086160188361081a565b915061086c8261082b565b602082019050919050565b6000602082019050818103600083015261089081610854565b9050919050565b60008160601b9050919050565b60006108af82610897565b9050919050565b60006108c1826108a4565b9050919050565b6108d96108d4826104fe565b6108b6565b82525050565b6000819050919050565b6108fa6108f582610611565b6108df565b82525050565b600061090c82876108c8565b60148201915061091c82866108e9565b60208201915061092c82856108e9565b60208201915061093c82846108e9565b60208201915081905095945050505050565b600081905092915050565b7f19457468657265756d205369676e6564204d6573736167653a0a333200000000600082015250565b600061098f601c8361094e565b915061099a82610959565b601c82019050919050565b6000819050919050565b6109c06109bb82610306565b6109a5565b82525050565b60006109d182610982565b91506109dd82846109af565b6020820191508190509291505056fea264697066735822122015b2a31f6f4f83636ca93a3909dc73b8cb7ba1bf2d895311521729d083eacac464736f6c63430008120033",
  "linkReferences": {},
  "deployedLinkReferences": {}
}