{
  "_format": "hh-sol-artifact-1",
  "contractName": "Token",
  "sourceName": "contracts/Token.sol",
  "abi": [
    {
      "inputs": [
        {
          "internalType": "string",
          "name": "_nameInMemory",
          "type": "string"
        },
        {
          "internalType": "string",
          "name": "_symbolInMemory",
          "type": "string"
        },
        {
          "internalType": "uint8",
          "name": "_decimalsInMemory",
          "type": "uint8"
        }
      ],
      "stateMutability": "nonpayable",
      "type": "constructor"
    },
    {
      "anonymous": false,
      "inputs": [
        {
          "indexed": true,
          "internalType": "address",
          "name": "_owner",
          "type": "address"
        },
        {
          "indexed": true,
          "internalType": "address",
          "name": "_spender",
          "type": "address"
        },
        {
          "indexed": false,
          "internalType": "uint256",
          "name": "_value",
          "type": "uint256"
        }
      ],
      "name": "Approval",
      "type": "event"
    },
    {
      "anonymous": false,
      "inputs": [
        {
          "indexed": true,
          "internalType": "address",
          "name": "oldOwner",
          "type": "address"
        },
        {
          "indexed": true,
          "internalType": "address",
          "name": "newOwner",
          "type": "address"
        }
      ],
      "name": "OwnerSet",
      "type": "event"
    },
    {
      "anonymous": false,
      "inputs": [
        {
          "indexed": true,
          "internalType": "address",
          "name": "_from",
          "type": "address"
        },
        {
          "indexed": true,
          "internalType": "address",
          "name": "_to",
          "type": "address"
        },
        {
          "indexed": false,
          "internalType": "uint256",
          "name": "_value",
          "type": "uint256"
        }
      ],
      "name": "Transfer",
      "type": "event"
    },
    {
      "inputs": [
        {
          "internalType": "address",
          "name": "_owner",
          "type": "address"
        },
        {
          "internalType": "address",
          "name": "_spender",
          "type": "address"
        }
      ],
      "name": "allowance",
      "outputs": [
        {
          "internalType": "uint256",
          "name": "remaining",
          "type": "uint256"
        }
      ],
      "stateMutability": "view",
      "type": "function"
    },
    {
      "inputs": [
        {
          "internalType": "address",
          "name": "_spender",
          "type": "address"
        },
        {
          "internalType": "uint256",
          "name": "_value",
          "type": "uint256"
        }
      ],
      "name": "approve",
      "outputs": [
        {
          "internalType": "bool",
          "name": "success",
          "type": "bool"
        }
      ],
      "stateMutability": "nonpayable",
      "type": "function"
    },
    {
      "inputs": [
        {
          "internalType": "address",
          "name": "_owner",
          "type": "address"
        }
      ],
      "name": "balanceOf",
      "outputs": [
        {
          "internalType": "uint256",
          "name": "balance",
          "type": "uint256"
        }
      ],
      "stateMutability": "view",
      "type": "function"
    },
    {
      "inputs": [],
      "name": "buy",
      "outputs": [],
      "stateMutability": "payable",
      "type": "function"
    },
    {
      "inputs": [
        {
          "internalType": "address",
          "name": "newOwner",
          "type": "address"
        }
      ],
      "name": "changeOwner",
      "outputs": [],
      "stateMutability": "nonpayable",
      "type": "function"
    },
    {
      "inputs": [],
      "name": "decimals",
      "outputs": [
        {
          "internalType": "uint8",
          "name": "",
          "type": "uint8"
        }
      ],
      "stateMutability": "view",
      "type": "function"
    },
    {
      "inputs": [],
      "name": "getOwner",
      "outputs": [
        {
          "internalType": "address",
          "name": "",
          "type": "address"
        }
      ],
      "stateMutability": "view",
      "type": "function"
    },
    {
      "inputs": [
        {
          "internalType": "address",
          "name": "_owner",
          "type": "address"
        }
      ],
      "name": "mint",
      "outputs": [],
      "stateMutability": "nonpayable",
      "type": "function"
    },
    {
      "inputs": [],
      "name": "name",
      "outputs": [
        {
          "internalType": "string",
          "name": "",
          "type": "string"
        }
      ],
      "stateMutability": "view",
      "type": "function"
    },
    {
      "inputs": [
        {
          "internalType": "uint256",
          "name": "sellAmount",
          "type": "uint256"
        }
      ],
      "name": "sell",
      "outputs": [],
      "stateMutability": "nonpayable",
      "type": "function"
    },
    {
      "inputs": [
        {
          "internalType": "string",
          "name": "newName",
          "type": "string"
        }
      ],
      "name": "setName",
      "outputs": [],
      "stateMutability": "nonpayable",
      "type": "function"
    },
    {
      "inputs": [],
      "name": "symbol",
      "outputs": [
        {
          "internalType": "string",
          "name": "",
          "type": "string"
        }
      ],
      "stateMutability": "view",
      "type": "function"
    },
    {
      "inputs": [],
      "name": "totalSupply",
      "outputs": [
        {
          "internalType": "uint256",
          "name": "",
          "type": "uint256"
        }
      ],
      "stateMutability": "view",
      "type": "function"
    },
    {
      "inputs": [
        {
          "internalType": "address",
          "name": "_to",
          "type": "address"
        },
        {
          "internalType": "uint256",
          "name": "_value",
          "type": "uint256"
        }
      ],
      "name": "transfer",
      "outputs": [
        {
          "internalType": "bool",
          "name": "success",
          "type": "bool"
        }
      ],
      "stateMutability": "nonpayable",
      "type": "function"
    },
    {
      "inputs": [
        {
          "internalType": "address",
          "name": "_from",
          "type": "address"
        },
        {
          "internalType": "address",
          "name": "_to",
          "type": "address"
        },
        {
          "internalType": "uint256",
          "name": "_value",
          "type": "uint256"
        }
      ],
      "name": "transferFrom",
      "outputs": [
        {
          "internalType": "bool",
          "name": "success",
          "type": "bool"
        }
      ],
      "stateMutability": "nonpayable",
      "type": "function"
    }
  ],
  "bytecode": "0x60806040523480156200001157600080fd5b50604051620028a4380380620028a48339818101604052810190620000379190620004e7565b620000836040518060400160405280601b81526020017f4f776e657220636f6e7472616374206465706c6f7965642062793a000000000081525033620001a460201b620011fb1760201c565b336000806101000a81548173ffffffffffffffffffffffffffffffffffffffff021916908373ffffffffffffffffffffffffffffffffffffffff16021790555060008054906101000a900473ffffffffffffffffffffffffffffffffffffffff1673ffffffffffffffffffffffffffffffffffffffff16600073ffffffffffffffffffffffffffffffffffffffff167f342827c97908e5e2f71151c08502a66d44b6f758e3ac2f1de95f02eb95f0a73560405160405180910390a382600190816200014f9190620007cc565b508160029081620001619190620007cc565b5080600360006101000a81548160ff021916908360ff16021790555060006004819055506200019b836200024a60201b620012971760201c565b505050620009a2565b620002468282604051602401620001bd9291906200094a565b6040516020818303038152906040527f319af333000000000000000000000000000000000000000000000000000000007bffffffffffffffffffffffffffffffffffffffffffffffffffffffff19166020820180517bffffffffffffffffffffffffffffffffffffffffffffffffffffffff8381831617835250505050620002ed60201b60201c565b5050565b620002ea816040516024016200026191906200097e565b6040516020818303038152906040527f41304fac000000000000000000000000000000000000000000000000000000007bffffffffffffffffffffffffffffffffffffffffffffffffffffffff19166020820180517bffffffffffffffffffffffffffffffffffffffffffffffffffffffff8381831617835250505050620002ed60201b60201c565b50565b60008151905060006a636f6e736f6c652e6c6f679050602083016000808483855afa5050505050565b6000604051905090565b600080fd5b600080fd5b600080fd5b600080fd5b6000601f19601f8301169050919050565b7f4e487b7100000000000000000000000000000000000000000000000000000000600052604160045260246000fd5b6200037f8262000334565b810181811067ffffffffffffffff82111715620003a157620003a062000345565b5b80604052505050565b6000620003b662000316565b9050620003c4828262000374565b919050565b600067ffffffffffffffff821115620003e757620003e662000345565b5b620003f28262000334565b9050602081019050919050565b60005b838110156200041f57808201518184015260208101905062000402565b60008484015250505050565b6000620004426200043c84620003c9565b620003aa565b9050828152602081018484840111156200046157620004606200032f565b5b6200046e848285620003ff565b509392505050565b600082601f8301126200048e576200048d6200032a565b5b8151620004a08482602086016200042b565b91505092915050565b600060ff82169050919050565b620004c181620004a9565b8114620004cd57600080fd5b50565b600081519050620004e181620004b6565b92915050565b60008060006060848603121562000503576200050262000320565b5b600084015167ffffffffffffffff81111562000524576200052362000325565b5b620005328682870162000476565b935050602084015167ffffffffffffffff81111562000556576200055562000325565b5b620005648682870162000476565b92505060406200057786828701620004d0565b9150509250925092565b600081519050919050565b7f4e487b7100000000000000000000000000000000000000000000000000000000600052602260045260246000fd5b60006002820490506001821680620005d457607f821691505b602082108103620005ea57620005e96200058c565b5b50919050565b60008190508160005260206000209050919050565b60006020601f8301049050919050565b600082821b905092915050565b600060088302620006547fffffffffffffffffffffffffffffffffffffffffffffffffffffffffffffffff8262000615565b62000660868362000615565b95508019841693508086168417925050509392505050565b6000819050919050565b6000819050919050565b6000620006ad620006a7620006a18462000678565b62000682565b62000678565b9050919050565b6000819050919050565b620006c9836200068c565b620006e1620006d882620006b4565b84845462000622565b825550505050565b600090565b620006f8620006e9565b62000705818484620006be565b505050565b5b818110156200072d5762000721600082620006ee565b6001810190506200070b565b5050565b601f8211156200077c576200074681620005f0565b620007518462000605565b8101602085101562000761578190505b62000779620007708562000605565b8301826200070a565b50505b505050565b600082821c905092915050565b6000620007a16000198460080262000781565b1980831691505092915050565b6000620007bc83836200078e565b9150826002028217905092915050565b620007d78262000581565b67ffffffffffffffff811115620007f357620007f262000345565b5b620007ff8254620005bb565b6200080c82828562000731565b600060209050601f8311600181146200084457600084156200082f578287015190505b6200083b8582620007ae565b865550620008ab565b601f1984166200085486620005f0565b60005b828110156200087e5784890151825560018201915060208501945060208101905062000857565b868310156200089e57848901516200089a601f8916826200078e565b8355505b6001600288020188555050505b505050505050565b600082825260208201905092915050565b6000620008d18262000581565b620008dd8185620008b3565b9350620008ef818560208601620003ff565b620008fa8162000334565b840191505092915050565b600073ffffffffffffffffffffffffffffffffffffffff82169050919050565b6000620009328262000905565b9050919050565b620009448162000925565b82525050565b60006040820190508181036000830152620009668185620008c4565b905062000977602083018462000939565b9392505050565b600060208201905081810360008301526200099a8184620008c4565b905092915050565b611ef280620009b26000396000f3fe6080604052600436106100e85760003560e01c8063893d20e81161008a578063a9059cbb11610059578063a9059cbb146102d7578063c47f002714610314578063dd62ed3e1461033d578063e4849b321461037a576100e8565b8063893d20e81461024e57806395d89b4114610279578063a6f2ae3a146102a4578063a6f9dae1146102ae576100e8565b806323b872dd116100c657806323b872dd14610180578063313ce567146101bd5780636a627842146101e857806370a0823114610211576100e8565b806306fdde03146100ed578063095ea7b31461011857806318160ddd14610155575b600080fd5b3480156100f957600080fd5b506101026103a3565b60405161010f91906113e9565b60405180910390f35b34801561012457600080fd5b5061013f600480360381019061013a91906114b3565b610431565b60405161014c919061150e565b60405180910390f35b34801561016157600080fd5b5061016a610535565b6040516101779190611538565b60405180910390f35b34801561018c57600080fd5b506101a760048036038101906101a29190611553565b61053b565b6040516101b4919061150e565b60405180910390f35b3480156101c957600080fd5b506101d2610863565b6040516101df91906115c2565b60405180910390f35b3480156101f457600080fd5b5061020f600480360381019061020a91906115dd565b610876565b005b34801561021d57600080fd5b50610238600480360381019061023391906115dd565b6109df565b6040516102459190611538565b60405180910390f35b34801561025a57600080fd5b50610263610a28565b6040516102709190611619565b60405180910390f35b34801561028557600080fd5b5061028e610a51565b60405161029b91906113e9565b60405180910390f35b6102ac610adf565b005b3480156102ba57600080fd5b506102d560048036038101906102d091906115dd565b610bb6565b005b3480156102e357600080fd5b506102fe60048036038101906102f991906114b3565b610d50565b60405161030b919061150e565b60405180910390f35b34801561032057600080fd5b5061033b60048036038101906103369190611769565b610eef565b005b34801561034957600080fd5b50610364600480360381019061035f91906117b2565b610f90565b6040516103719190611538565b60405180910390f35b34801561038657600080fd5b506103a1600480360381019061039c91906117f2565b611017565b005b600180546103b09061184e565b80601f01602080910402602001604051908101604052809291908181526020018280546103dc9061184e565b80156104295780601f106103fe57610100808354040283529160200191610429565b820191906000526020600020905b81548152906001019060200180831161040c57829003601f168201915b505050505081565b600081600660003373ffffffffffffffffffffffffffffffffffffffff1673ffffffffffffffffffffffffffffffffffffffff16815260200190815260200160002060008573ffffffffffffffffffffffffffffffffffffffff1673ffffffffffffffffffffffffffffffffffffffff16815260200190815260200160002060008282546104bf91906118ae565b925050819055508273ffffffffffffffffffffffffffffffffffffffff163373ffffffffffffffffffffffffffffffffffffffff167f8c5be1e5ebec7d5bd14f71427d1e84f3dd0314c0f7b2291e5b200ac8c7c3b925846040516105239190611538565b60405180910390a36001905092915050565b60045481565b600081600560008673ffffffffffffffffffffffffffffffffffffffff1673ffffffffffffffffffffffffffffffffffffffff1681526020019081526020016000205410156105bf576040517f08c379a00000000000000000000000000000000000000000000000000000000081526004016105b69061192e565b60405180910390fd5b81600660008673ffffffffffffffffffffffffffffffffffffffff1673ffffffffffffffffffffffffffffffffffffffff16815260200190815260200160002060003373ffffffffffffffffffffffffffffffffffffffff1673ffffffffffffffffffffffffffffffffffffffff1681526020019081526020016000205410158061067557503373ffffffffffffffffffffffffffffffffffffffff168473ffffffffffffffffffffffffffffffffffffffff16145b6106b4576040517f08c379a00000000000000000000000000000000000000000000000000000000081526004016106ab9061199a565b60405180910390fd5b81600660008673ffffffffffffffffffffffffffffffffffffffff1673ffffffffffffffffffffffffffffffffffffffff16815260200190815260200160002060003373ffffffffffffffffffffffffffffffffffffffff1673ffffffffffffffffffffffffffffffffffffffff168152602001908152602001600020600082825461074091906119ba565b9250508190555081600560008673ffffffffffffffffffffffffffffffffffffffff1673ffffffffffffffffffffffffffffffffffffffff168152602001908152602001600020600082825461079691906119ba565b9250508190555081600560008573ffffffffffffffffffffffffffffffffffffffff1673ffffffffffffffffffffffffffffffffffffffff16815260200190815260200160002060008282546107ec91906118ae565b925050819055508273ffffffffffffffffffffffffffffffffffffffff168473ffffffffffffffffffffffffffffffffffffffff167fddf252ad1be2c89b69c2b068fc378daa952ba7f163c4a11628f55a4df523b3ef846040516108509190611538565b60405180910390a3600190509392505050565b600360009054906101000a900460ff1681565b60008054906101000a900473ffffffffffffffffffffffffffffffffffffffff1673ffffffffffffffffffffffffffffffffffffffff163373ffffffffffffffffffffffffffffffffffffffff1614610904576040517f08c379a00000000000000000000000000000000000000000000000000000000081526004016108fb90611a3a565b60405180910390fd5b600a600560008373ffffffffffffffffffffffffffffffffffffffff1673ffffffffffffffffffffffffffffffffffffffff168152602001908152602001600020600082825461095491906118ae565b92505081905550600a6004600082825461096e91906118ae565b925050819055508073ffffffffffffffffffffffffffffffffffffffff16600073ffffffffffffffffffffffffffffffffffffffff167fddf252ad1be2c89b69c2b068fc378daa952ba7f163c4a11628f55a4df523b3ef600a6040516109d49190611a9f565b60405180910390a350565b6000600560008373ffffffffffffffffffffffffffffffffffffffff1673ffffffffffffffffffffffffffffffffffffffff168152602001908152602001600020549050919050565b60008060009054906101000a900473ffffffffffffffffffffffffffffffffffffffff16905090565b60028054610a5e9061184e565b80601f0160208091040260200160405190810160405280929190818152602001828054610a8a9061184e565b8015610ad75780601f10610aac57610100808354040283529160200191610ad7565b820191906000526020600020905b815481529060010190602001808311610aba57829003601f168201915b505050505081565b34600560003373ffffffffffffffffffffffffffffffffffffffff1673ffffffffffffffffffffffffffffffffffffffff1681526020019081526020016000206000828254610b2e91906118ae565b925050819055503460046000828254610b4791906118ae565b925050819055503373ffffffffffffffffffffffffffffffffffffffff16600073ffffffffffffffffffffffffffffffffffffffff167fddf252ad1be2c89b69c2b068fc378daa952ba7f163c4a11628f55a4df523b3ef34604051610bac9190611538565b60405180910390a3565b60008054906101000a900473ffffffffffffffffffffffffffffffffffffffff1673ffffffffffffffffffffffffffffffffffffffff163373ffffffffffffffffffffffffffffffffffffffff1614610c44576040517f08c379a0000000000000000000000000000000000000000000000000000000008152600401610c3b90611a3a565b60405180910390fd5b6000600242610c539190611ae9565b14610c93576040517f08c379a0000000000000000000000000000000000000000000000000000000008152600401610c8a90611b66565b60405180910390fd5b8073ffffffffffffffffffffffffffffffffffffffff1660008054906101000a900473ffffffffffffffffffffffffffffffffffffffff1673ffffffffffffffffffffffffffffffffffffffff167f342827c97908e5e2f71151c08502a66d44b6f758e3ac2f1de95f02eb95f0a73560405160405180910390a3806000806101000a81548173ffffffffffffffffffffffffffffffffffffffff021916908373ffffffffffffffffffffffffffffffffffffffff16021790555050565b600081600560003373ffffffffffffffffffffffffffffffffffffffff1673ffffffffffffffffffffffffffffffffffffffff168152602001908152602001600020541015610dd4576040517f08c379a0000000000000000000000000000000000000000000000000000000008152600401610dcb9061192e565b60405180910390fd5b81600560003373ffffffffffffffffffffffffffffffffffffffff1673ffffffffffffffffffffffffffffffffffffffff1681526020019081526020016000206000828254610e2391906119ba565b9250508190555081600560008573ffffffffffffffffffffffffffffffffffffffff1673ffffffffffffffffffffffffffffffffffffffff1681526020019081526020016000206000828254610e7991906118ae565b925050819055508273ffffffffffffffffffffffffffffffffffffffff163373ffffffffffffffffffffffffffffffffffffffff167fddf252ad1be2c89b69c2b068fc378daa952ba7f163c4a11628f55a4df523b3ef84604051610edd9190611538565b60405180910390a36001905092915050565b60008054906101000a900473ffffffffffffffffffffffffffffffffffffffff1673ffffffffffffffffffffffffffffffffffffffff163373ffffffffffffffffffffffffffffffffffffffff1614610f7d576040517f08c379a0000000000000000000000000000000000000000000000000000000008152600401610f7490611a3a565b60405180910390fd5b8060019081610f8c9190611d28565b5050565b6000600660008473ffffffffffffffffffffffffffffffffffffffff1673ffffffffffffffffffffffffffffffffffffffff16815260200190815260200160002060008373ffffffffffffffffffffffffffffffffffffffff1673ffffffffffffffffffffffffffffffffffffffff16815260200190815260200160002054905092915050565b8047101561105a576040517f08c379a000000000000000000000000000000000000000000000000000000000815260040161105190611e6c565b60405180910390fd5b80600560003373ffffffffffffffffffffffffffffffffffffffff1673ffffffffffffffffffffffffffffffffffffffff1681526020019081526020016000205410156110dc576040517f08c379a00000000000000000000000000000000000000000000000000000000081526004016110d39061192e565b60405180910390fd5b80600560003373ffffffffffffffffffffffffffffffffffffffff1673ffffffffffffffffffffffffffffffffffffffff168152602001908152602001600020600082825461112b91906119ba565b92505081905550806004600082825461114491906119ba565b925050819055503373ffffffffffffffffffffffffffffffffffffffff166108fc829081150290604051600060405180830381858888f19350505050158015611191573d6000803e3d6000fd5b50600073ffffffffffffffffffffffffffffffffffffffff163373ffffffffffffffffffffffffffffffffffffffff167fddf252ad1be2c89b69c2b068fc378daa952ba7f163c4a11628f55a4df523b3ef836040516111f09190611538565b60405180910390a350565b6112938282604051602401611211929190611e8c565b6040516020818303038152906040527f319af333000000000000000000000000000000000000000000000000000000007bffffffffffffffffffffffffffffffffffffffffffffffffffffffff19166020820180517bffffffffffffffffffffffffffffffffffffffffffffffffffffffff8381831617835250505050611330565b5050565b61132d816040516024016112ab91906113e9565b6040516020818303038152906040527f41304fac000000000000000000000000000000000000000000000000000000007bffffffffffffffffffffffffffffffffffffffffffffffffffffffff19166020820180517bffffffffffffffffffffffffffffffffffffffffffffffffffffffff8381831617835250505050611330565b50565b60008151905060006a636f6e736f6c652e6c6f679050602083016000808483855afa5050505050565b600081519050919050565b600082825260208201905092915050565b60005b83811015611393578082015181840152602081019050611378565b60008484015250505050565b6000601f19601f8301169050919050565b60006113bb82611359565b6113c58185611364565b93506113d5818560208601611375565b6113de8161139f565b840191505092915050565b6000602082019050818103600083015261140381846113b0565b905092915050565b6000604051905090565b600080fd5b600080fd5b600073ffffffffffffffffffffffffffffffffffffffff82169050919050565b600061144a8261141f565b9050919050565b61145a8161143f565b811461146557600080fd5b50565b60008135905061147781611451565b92915050565b6000819050919050565b6114908161147d565b811461149b57600080fd5b50565b6000813590506114ad81611487565b92915050565b600080604083850312156114ca576114c9611415565b5b60006114d885828601611468565b92505060206114e98582860161149e565b9150509250929050565b60008115159050919050565b611508816114f3565b82525050565b600060208201905061152360008301846114ff565b92915050565b6115328161147d565b82525050565b600060208201905061154d6000830184611529565b92915050565b60008060006060848603121561156c5761156b611415565b5b600061157a86828701611468565b935050602061158b86828701611468565b925050604061159c8682870161149e565b9150509250925092565b600060ff82169050919050565b6115bc816115a6565b82525050565b60006020820190506115d760008301846115b3565b92915050565b6000602082840312156115f3576115f2611415565b5b600061160184828501611468565b91505092915050565b6116138161143f565b82525050565b600060208201905061162e600083018461160a565b92915050565b600080fd5b600080fd5b7f4e487b7100000000000000000000000000000000000000000000000000000000600052604160045260246000fd5b6116768261139f565b810181811067ffffffffffffffff821117156116955761169461163e565b5b80604052505050565b60006116a861140b565b90506116b4828261166d565b919050565b600067ffffffffffffffff8211156116d4576116d361163e565b5b6116dd8261139f565b9050602081019050919050565b82818337600083830152505050565b600061170c611707846116b9565b61169e565b90508281526020810184848401111561172857611727611639565b5b6117338482856116ea565b509392505050565b600082601f8301126117505761174f611634565b5b81356117608482602086016116f9565b91505092915050565b60006020828403121561177f5761177e611415565b5b600082013567ffffffffffffffff81111561179d5761179c61141a565b5b6117a98482850161173b565b91505092915050565b600080604083850312156117c9576117c8611415565b5b60006117d785828601611468565b92505060206117e885828601611468565b9150509250929050565b60006020828403121561180857611807611415565b5b60006118168482850161149e565b91505092915050565b7f4e487b7100000000000000000000000000000000000000000000000000000000600052602260045260246000fd5b6000600282049050600182168061186657607f821691505b6020821081036118795761187861181f565b5b50919050565b7f4e487b7100000000000000000000000000000000000000000000000000000000600052601160045260246000fd5b60006118b98261147d565b91506118c48361147d565b92508282019050808211156118dc576118db61187f565b5b92915050565b7f536f72727920796f752061726520706f6f720000000000000000000000000000600082015250565b6000611918601283611364565b9150611923826118e2565b602082019050919050565b600060208201905081810360008301526119478161190b565b9050919050565b7f536f727279000000000000000000000000000000000000000000000000000000600082015250565b6000611984600583611364565b915061198f8261194e565b602082019050919050565b600060208201905081810360008301526119b381611977565b9050919050565b60006119c58261147d565b91506119d08361147d565b92508282039050818111156119e8576119e761187f565b5b92915050565b7f43616c6c6572206973206e6f74206f776e657200000000000000000000000000600082015250565b6000611a24601383611364565b9150611a2f826119ee565b602082019050919050565b60006020820190508181036000830152611a5381611a17565b9050919050565b6000819050919050565b6000819050919050565b6000611a89611a84611a7f84611a5a565b611a64565b61147d565b9050919050565b611a9981611a6e565b82525050565b6000602082019050611ab46000830184611a90565b92915050565b7f4e487b7100000000000000000000000000000000000000000000000000000000600052601260045260246000fd5b6000611af48261147d565b9150611aff8361147d565b925082611b0f57611b0e611aba565b5b828206905092915050565b7f426164206c75636b000000000000000000000000000000000000000000000000600082015250565b6000611b50600883611364565b9150611b5b82611b1a565b602082019050919050565b60006020820190508181036000830152611b7f81611b43565b9050919050565b60008190508160005260206000209050919050565b60006020601f8301049050919050565b600082821b905092915050565b600060088302611be87fffffffffffffffffffffffffffffffffffffffffffffffffffffffffffffffff82611bab565b611bf28683611bab565b95508019841693508086168417925050509392505050565b6000611c25611c20611c1b8461147d565b611a64565b61147d565b9050919050565b6000819050919050565b611c3f83611c0a565b611c53611c4b82611c2c565b848454611bb8565b825550505050565b600090565b611c68611c5b565b611c73818484611c36565b505050565b5b81811015611c9757611c8c600082611c60565b600181019050611c79565b5050565b601f821115611cdc57611cad81611b86565b611cb684611b9b565b81016020851015611cc5578190505b611cd9611cd185611b9b565b830182611c78565b50505b505050565b600082821c905092915050565b6000611cff60001984600802611ce1565b1980831691505092915050565b6000611d188383611cee565b9150826002028217905092915050565b611d3182611359565b67ffffffffffffffff811115611d4a57611d4961163e565b5b611d54825461184e565b611d5f828285611c9b565b600060209050601f831160018114611d925760008415611d80578287015190505b611d8a8582611d0c565b865550611df2565b601f198416611da086611b86565b60005b82811015611dc857848901518255600182019150602085019450602081019050611da3565b86831015611de55784890151611de1601f891682611cee565b8355505b6001600288020188555050505b505050505050565b7f436f6e747261637420646f65736e2774206861766520656e6f7567682062616c60008201527f616e636520746f2073656c6c0000000000000000000000000000000000000000602082015250565b6000611e56602c83611364565b9150611e6182611dfa565b604082019050919050565b60006020820190508181036000830152611e8581611e49565b9050919050565b60006040820190508181036000830152611ea681856113b0565b9050611eb5602083018461160a565b939250505056fea2646970667358221220f2bc9fc69f0a4bde990bcf62fbe791555b858b2921d72a8216ec9795b68a79d464736f6c63430008120033",
  "linkReferences": {},
  "deployedLinkReferences": {}
}