{
  "_format": "hh-sol-artifact-1",
  "contractName": "Token",
  "sourceName": "contracts/Token.sol",
  "abi": [
    {
      "inputs": [
        {
          "internalType": "string",
          "name": "_nameInMemory",
          "type": "string"
        },
        {
          "internalType": "string",
          "name": "_symbolInMemory",
          "type": "string"
        },
        {
          "internalType": "uint8",
          "name": "_decimalsInMemory",
          "type": "uint8"
        }
      ],
      "stateMutability": "nonpayable",
      "type": "constructor"
    },
    {
      "anonymous": false,
      "inputs": [
        {
          "indexed": true,
          "internalType": "address",
          "name": "_owner",
          "type": "address"
        },
        {
          "indexed": true,
          "internalType": "address",
          "name": "_spender",
          "type": "address"
        },
        {
          "indexed": false,
          "internalType": "uint256",
          "name": "_value",
          "type": "uint256"
        }
      ],
      "name": "Approval",
      "type": "event"
    },
    {
      "anonymous": false,
      "inputs": [
        {
          "indexed": true,
          "internalType": "address",
          "name": "oldOwner",
          "type": "address"
        },
        {
          "indexed": true,
          "internalType": "address",
          "name": "newOwner",
          "type": "address"
        }
      ],
      "name": "OwnerSet",
      "type": "event"
    },
    {
      "anonymous": false,
      "inputs": [
        {
          "indexed": true,
          "internalType": "address",
          "name": "_from",
          "type": "address"
        },
        {
          "indexed": true,
          "internalType": "address",
          "name": "_to",
          "type": "address"
        },
        {
          "indexed": false,
          "internalType": "uint256",
          "name": "_value",
          "type": "uint256"
        }
      ],
      "name": "Transfer",
      "type": "event"
    },
    {
      "inputs": [
        {
          "internalType": "address",
          "name": "_owner",
          "type": "address"
        },
        {
          "internalType": "address",
          "name": "_spender",
          "type": "address"
        }
      ],
      "name": "allowance",
      "outputs": [
        {
          "internalType": "uint256",
          "name": "remaining",
          "type": "uint256"
        }
      ],
      "stateMutability": "view",
      "type": "function"
    },
    {
      "inputs": [
        {
          "internalType": "address",
          "name": "_spender",
          "type": "address"
        },
        {
          "internalType": "uint256",
          "name": "_value",
          "type": "uint256"
        }
      ],
      "name": "approve",
      "outputs": [
        {
          "internalType": "bool",
          "name": "success",
          "type": "bool"
        }
      ],
      "stateMutability": "nonpayable",
      "type": "function"
    },
    {
      "inputs": [
        {
          "internalType": "address",
          "name": "_owner",
          "type": "address"
        }
      ],
      "name": "balanceOf",
      "outputs": [
        {
          "internalType": "uint256",
          "name": "balance",
          "type": "uint256"
        }
      ],
      "stateMutability": "view",
      "type": "function"
    },
    {
      "inputs": [],
      "name": "buy",
      "outputs": [],
      "stateMutability": "payable",
      "type": "function"
    },
    {
      "inputs": [
        {
          "internalType": "address",
          "name": "newOwner",
          "type": "address"
        }
      ],
      "name": "changeOwner",
      "outputs": [],
      "stateMutability": "nonpayable",
      "type": "function"
    },
    {
      "inputs": [],
      "name": "decimals",
      "outputs": [
        {
          "internalType": "uint8",
          "name": "",
          "type": "uint8"
        }
      ],
      "stateMutability": "view",
      "type": "function"
    },
    {
      "inputs": [],
      "name": "getOwner",
      "outputs": [
        {
          "internalType": "address",
          "name": "",
          "type": "address"
        }
      ],
      "stateMutability": "view",
      "type": "function"
    },
    {
      "inputs": [
        {
          "internalType": "address",
          "name": "_owner",
          "type": "address"
        }
      ],
      "name": "mint",
      "outputs": [],
      "stateMutability": "nonpayable",
      "type": "function"
    },
    {
      "inputs": [],
      "name": "name",
      "outputs": [
        {
          "internalType": "string",
          "name": "",
          "type": "string"
        }
      ],
      "stateMutability": "view",
      "type": "function"
    },
    {
      "inputs": [
        {
          "internalType": "uint256",
          "name": "sellAmount",
          "type": "uint256"
        }
      ],
      "name": "sell",
      "outputs": [],
      "stateMutability": "nonpayable",
      "type": "function"
    },
    {
      "inputs": [
        {
          "internalType": "string",
          "name": "newName",
          "type": "string"
        }
      ],
      "name": "setName",
      "outputs": [],
      "stateMutability": "nonpayable",
      "type": "function"
    },
    {
      "inputs": [],
      "name": "symbol",
      "outputs": [
        {
          "internalType": "string",
          "name": "",
          "type": "string"
        }
      ],
      "stateMutability": "view",
      "type": "function"
    },
    {
      "inputs": [],
      "name": "totalSupply",
      "outputs": [
        {
          "internalType": "uint256",
          "name": "",
          "type": "uint256"
        }
      ],
      "stateMutability": "view",
      "type": "function"
    },
    {
      "inputs": [
        {
          "internalType": "address",
          "name": "_to",
          "type": "address"
        },
        {
          "internalType": "uint256",
          "name": "_value",
          "type": "uint256"
        }
      ],
      "name": "transfer",
      "outputs": [
        {
          "internalType": "bool",
          "name": "success",
          "type": "bool"
        }
      ],
      "stateMutability": "nonpayable",
      "type": "function"
    },
    {
      "inputs": [
        {
          "internalType": "address",
          "name": "_from",
          "type": "address"
        },
        {
          "internalType": "address",
          "name": "_to",
          "type": "address"
        },
        {
          "internalType": "uint256",
          "name": "_value",
          "type": "uint256"
        }
      ],
      "name": "transferFrom",
      "outputs": [
        {
          "internalType": "bool",
          "name": "success",
          "type": "bool"
        }
      ],
      "stateMutability": "nonpayable",
      "type": "function"
    }
  ],
  "bytecode": "0x60806040523480156200001157600080fd5b506040516200272e3803806200272e83398181016040528101906200003791906200042e565b620000836040518060400160405280601b81526020017f4f776e657220636f6e7472616374206465706c6f7965642062793a0000000000815250336200018e60201b620011fb1760201c565b336000806101000a81548173ffffffffffffffffffffffffffffffffffffffff021916908373ffffffffffffffffffffffffffffffffffffffff16021790555060008054906101000a900473ffffffffffffffffffffffffffffffffffffffff1673ffffffffffffffffffffffffffffffffffffffff16600073ffffffffffffffffffffffffffffffffffffffff167f342827c97908e5e2f71151c08502a66d44b6f758e3ac2f1de95f02eb95f0a73560405160405180910390a382600190816200014f919062000713565b50816002908162000161919062000713565b5080600360006101000a81548160ff021916908360ff1602179055506000600481905550505050620008c5565b620002308282604051602401620001a792919062000891565b6040516020818303038152906040527f319af333000000000000000000000000000000000000000000000000000000007bffffffffffffffffffffffffffffffffffffffffffffffffffffffff19166020820180517bffffffffffffffffffffffffffffffffffffffffffffffffffffffff83818316178352505050506200023460201b60201c565b5050565b60008151905060006a636f6e736f6c652e6c6f679050602083016000808483855afa5050505050565b6000604051905090565b600080fd5b600080fd5b600080fd5b600080fd5b6000601f19601f8301169050919050565b7f4e487b7100000000000000000000000000000000000000000000000000000000600052604160045260246000fd5b620002c6826200027b565b810181811067ffffffffffffffff82111715620002e857620002e76200028c565b5b80604052505050565b6000620002fd6200025d565b90506200030b8282620002bb565b919050565b600067ffffffffffffffff8211156200032e576200032d6200028c565b5b62000339826200027b565b9050602081019050919050565b60005b838110156200036657808201518184015260208101905062000349565b60008484015250505050565b600062000389620003838462000310565b620002f1565b905082815260208101848484011115620003a857620003a762000276565b5b620003b584828562000346565b509392505050565b600082601f830112620003d557620003d462000271565b5b8151620003e784826020860162000372565b91505092915050565b600060ff82169050919050565b6200040881620003f0565b81146200041457600080fd5b50565b6000815190506200042881620003fd565b92915050565b6000806000606084860312156200044a576200044962000267565b5b600084015167ffffffffffffffff8111156200046b576200046a6200026c565b5b6200047986828701620003bd565b935050602084015167ffffffffffffffff8111156200049d576200049c6200026c565b5b620004ab86828701620003bd565b9250506040620004be8682870162000417565b9150509250925092565b600081519050919050565b7f4e487b7100000000000000000000000000000000000000000000000000000000600052602260045260246000fd5b600060028204905060018216806200051b57607f821691505b602082108103620005315762000530620004d3565b5b50919050565b60008190508160005260206000209050919050565b60006020601f8301049050919050565b600082821b905092915050565b6000600883026200059b7fffffffffffffffffffffffffffffffffffffffffffffffffffffffffffffffff826200055c565b620005a786836200055c565b95508019841693508086168417925050509392505050565b6000819050919050565b6000819050919050565b6000620005f4620005ee620005e884620005bf565b620005c9565b620005bf565b9050919050565b6000819050919050565b6200061083620005d3565b620006286200061f82620005fb565b84845462000569565b825550505050565b600090565b6200063f62000630565b6200064c81848462000605565b505050565b5b8181101562000674576200066860008262000635565b60018101905062000652565b5050565b601f821115620006c3576200068d8162000537565b62000698846200054c565b81016020851015620006a8578190505b620006c0620006b7856200054c565b83018262000651565b50505b505050565b600082821c905092915050565b6000620006e860001984600802620006c8565b1980831691505092915050565b6000620007038383620006d5565b9150826002028217905092915050565b6200071e82620004c8565b67ffffffffffffffff8111156200073a57620007396200028c565b5b62000746825462000502565b6200075382828562000678565b600060209050601f8311600181146200078b576000841562000776578287015190505b620007828582620006f5565b865550620007f2565b601f1984166200079b8662000537565b60005b82811015620007c5578489015182556001820191506020850194506020810190506200079e565b86831015620007e55784890151620007e1601f891682620006d5565b8355505b6001600288020188555050505b505050505050565b600082825260208201905092915050565b60006200081882620004c8565b620008248185620007fa565b93506200083681856020860162000346565b62000841816200027b565b840191505092915050565b600073ffffffffffffffffffffffffffffffffffffffff82169050919050565b600062000879826200084c565b9050919050565b6200088b816200086c565b82525050565b60006040820190508181036000830152620008ad81856200080b565b9050620008be602083018462000880565b9392505050565b611e5980620008d56000396000f3fe6080604052600436106100e85760003560e01c8063893d20e81161008a578063a9059cbb11610059578063a9059cbb146102d7578063c47f002714610314578063dd62ed3e1461033d578063e4849b321461037a576100e8565b8063893d20e81461024e57806395d89b4114610279578063a6f2ae3a146102a4578063a6f9dae1146102ae576100e8565b806323b872dd116100c657806323b872dd14610180578063313ce567146101bd5780636a627842146101e857806370a0823114610211576100e8565b806306fdde03146100ed578063095ea7b31461011857806318160ddd14610155575b600080fd5b3480156100f957600080fd5b506101026103a3565b60405161010f9190611350565b60405180910390f35b34801561012457600080fd5b5061013f600480360381019061013a919061141a565b610431565b60405161014c9190611475565b60405180910390f35b34801561016157600080fd5b5061016a610535565b604051610177919061149f565b60405180910390f35b34801561018c57600080fd5b506101a760048036038101906101a291906114ba565b61053b565b6040516101b49190611475565b60405180910390f35b3480156101c957600080fd5b506101d2610863565b6040516101df9190611529565b60405180910390f35b3480156101f457600080fd5b5061020f600480360381019061020a9190611544565b610876565b005b34801561021d57600080fd5b5061023860048036038101906102339190611544565b6109df565b604051610245919061149f565b60405180910390f35b34801561025a57600080fd5b50610263610a28565b6040516102709190611580565b60405180910390f35b34801561028557600080fd5b5061028e610a51565b60405161029b9190611350565b60405180910390f35b6102ac610adf565b005b3480156102ba57600080fd5b506102d560048036038101906102d09190611544565b610bb6565b005b3480156102e357600080fd5b506102fe60048036038101906102f9919061141a565b610d50565b60405161030b9190611475565b60405180910390f35b34801561032057600080fd5b5061033b600480360381019061033691906116d0565b610eef565b005b34801561034957600080fd5b50610364600480360381019061035f9190611719565b610f90565b604051610371919061149f565b60405180910390f35b34801561038657600080fd5b506103a1600480360381019061039c9190611759565b611017565b005b600180546103b0906117b5565b80601f01602080910402602001604051908101604052809291908181526020018280546103dc906117b5565b80156104295780601f106103fe57610100808354040283529160200191610429565b820191906000526020600020905b81548152906001019060200180831161040c57829003601f168201915b505050505081565b600081600660003373ffffffffffffffffffffffffffffffffffffffff1673ffffffffffffffffffffffffffffffffffffffff16815260200190815260200160002060008573ffffffffffffffffffffffffffffffffffffffff1673ffffffffffffffffffffffffffffffffffffffff16815260200190815260200160002060008282546104bf9190611815565b925050819055508273ffffffffffffffffffffffffffffffffffffffff163373ffffffffffffffffffffffffffffffffffffffff167f8c5be1e5ebec7d5bd14f71427d1e84f3dd0314c0f7b2291e5b200ac8c7c3b92584604051610523919061149f565b60405180910390a36001905092915050565b60045481565b600081600560008673ffffffffffffffffffffffffffffffffffffffff1673ffffffffffffffffffffffffffffffffffffffff1681526020019081526020016000205410156105bf576040517f08c379a00000000000000000000000000000000000000000000000000000000081526004016105b690611895565b60405180910390fd5b81600660008673ffffffffffffffffffffffffffffffffffffffff1673ffffffffffffffffffffffffffffffffffffffff16815260200190815260200160002060003373ffffffffffffffffffffffffffffffffffffffff1673ffffffffffffffffffffffffffffffffffffffff1681526020019081526020016000205410158061067557503373ffffffffffffffffffffffffffffffffffffffff168473ffffffffffffffffffffffffffffffffffffffff16145b6106b4576040517f08c379a00000000000000000000000000000000000000000000000000000000081526004016106ab90611901565b60405180910390fd5b81600660008673ffffffffffffffffffffffffffffffffffffffff1673ffffffffffffffffffffffffffffffffffffffff16815260200190815260200160002060003373ffffffffffffffffffffffffffffffffffffffff1673ffffffffffffffffffffffffffffffffffffffff16815260200190815260200160002060008282546107409190611921565b9250508190555081600560008673ffffffffffffffffffffffffffffffffffffffff1673ffffffffffffffffffffffffffffffffffffffff16815260200190815260200160002060008282546107969190611921565b9250508190555081600560008573ffffffffffffffffffffffffffffffffffffffff1673ffffffffffffffffffffffffffffffffffffffff16815260200190815260200160002060008282546107ec9190611815565b925050819055508273ffffffffffffffffffffffffffffffffffffffff168473ffffffffffffffffffffffffffffffffffffffff167fddf252ad1be2c89b69c2b068fc378daa952ba7f163c4a11628f55a4df523b3ef84604051610850919061149f565b60405180910390a3600190509392505050565b600360009054906101000a900460ff1681565b60008054906101000a900473ffffffffffffffffffffffffffffffffffffffff1673ffffffffffffffffffffffffffffffffffffffff163373ffffffffffffffffffffffffffffffffffffffff1614610904576040517f08c379a00000000000000000000000000000000000000000000000000000000081526004016108fb906119a1565b60405180910390fd5b600a600560008373ffffffffffffffffffffffffffffffffffffffff1673ffffffffffffffffffffffffffffffffffffffff16815260200190815260200160002060008282546109549190611815565b92505081905550600a6004600082825461096e9190611815565b925050819055508073ffffffffffffffffffffffffffffffffffffffff16600073ffffffffffffffffffffffffffffffffffffffff167fddf252ad1be2c89b69c2b068fc378daa952ba7f163c4a11628f55a4df523b3ef600a6040516109d49190611a06565b60405180910390a350565b6000600560008373ffffffffffffffffffffffffffffffffffffffff1673ffffffffffffffffffffffffffffffffffffffff168152602001908152602001600020549050919050565b60008060009054906101000a900473ffffffffffffffffffffffffffffffffffffffff16905090565b60028054610a5e906117b5565b80601f0160208091040260200160405190810160405280929190818152602001828054610a8a906117b5565b8015610ad75780601f10610aac57610100808354040283529160200191610ad7565b820191906000526020600020905b815481529060010190602001808311610aba57829003601f168201915b505050505081565b34600560003373ffffffffffffffffffffffffffffffffffffffff1673ffffffffffffffffffffffffffffffffffffffff1681526020019081526020016000206000828254610b2e9190611815565b925050819055503460046000828254610b479190611815565b925050819055503373ffffffffffffffffffffffffffffffffffffffff16600073ffffffffffffffffffffffffffffffffffffffff167fddf252ad1be2c89b69c2b068fc378daa952ba7f163c4a11628f55a4df523b3ef34604051610bac919061149f565b60405180910390a3565b60008054906101000a900473ffffffffffffffffffffffffffffffffffffffff1673ffffffffffffffffffffffffffffffffffffffff163373ffffffffffffffffffffffffffffffffffffffff1614610c44576040517f08c379a0000000000000000000000000000000000000000000000000000000008152600401610c3b906119a1565b60405180910390fd5b6000600242610c539190611a50565b14610c93576040517f08c379a0000000000000000000000000000000000000000000000000000000008152600401610c8a90611acd565b60405180910390fd5b8073ffffffffffffffffffffffffffffffffffffffff1660008054906101000a900473ffffffffffffffffffffffffffffffffffffffff1673ffffffffffffffffffffffffffffffffffffffff167f342827c97908e5e2f71151c08502a66d44b6f758e3ac2f1de95f02eb95f0a73560405160405180910390a3806000806101000a81548173ffffffffffffffffffffffffffffffffffffffff021916908373ffffffffffffffffffffffffffffffffffffffff16021790555050565b600081600560003373ffffffffffffffffffffffffffffffffffffffff1673ffffffffffffffffffffffffffffffffffffffff168152602001908152602001600020541015610dd4576040517f08c379a0000000000000000000000000000000000000000000000000000000008152600401610dcb90611895565b60405180910390fd5b81600560003373ffffffffffffffffffffffffffffffffffffffff1673ffffffffffffffffffffffffffffffffffffffff1681526020019081526020016000206000828254610e239190611921565b9250508190555081600560008573ffffffffffffffffffffffffffffffffffffffff1673ffffffffffffffffffffffffffffffffffffffff1681526020019081526020016000206000828254610e799190611815565b925050819055508273ffffffffffffffffffffffffffffffffffffffff163373ffffffffffffffffffffffffffffffffffffffff167fddf252ad1be2c89b69c2b068fc378daa952ba7f163c4a11628f55a4df523b3ef84604051610edd919061149f565b60405180910390a36001905092915050565b60008054906101000a900473ffffffffffffffffffffffffffffffffffffffff1673ffffffffffffffffffffffffffffffffffffffff163373ffffffffffffffffffffffffffffffffffffffff1614610f7d576040517f08c379a0000000000000000000000000000000000000000000000000000000008152600401610f74906119a1565b60405180910390fd5b8060019081610f8c9190611c8f565b5050565b6000600660008473ffffffffffffffffffffffffffffffffffffffff1673ffffffffffffffffffffffffffffffffffffffff16815260200190815260200160002060008373ffffffffffffffffffffffffffffffffffffffff1673ffffffffffffffffffffffffffffffffffffffff16815260200190815260200160002054905092915050565b8047101561105a576040517f08c379a000000000000000000000000000000000000000000000000000000000815260040161105190611dd3565b60405180910390fd5b80600560003373ffffffffffffffffffffffffffffffffffffffff1673ffffffffffffffffffffffffffffffffffffffff1681526020019081526020016000205410156110dc576040517f08c379a00000000000000000000000000000000000000000000000000000000081526004016110d390611895565b60405180910390fd5b80600560003373ffffffffffffffffffffffffffffffffffffffff1673ffffffffffffffffffffffffffffffffffffffff168152602001908152602001600020600082825461112b9190611921565b9250508190555080600460008282546111449190611921565b925050819055503373ffffffffffffffffffffffffffffffffffffffff166108fc829081150290604051600060405180830381858888f19350505050158015611191573d6000803e3d6000fd5b50600073ffffffffffffffffffffffffffffffffffffffff163373ffffffffffffffffffffffffffffffffffffffff167fddf252ad1be2c89b69c2b068fc378daa952ba7f163c4a11628f55a4df523b3ef836040516111f0919061149f565b60405180910390a350565b6112938282604051602401611211929190611df3565b6040516020818303038152906040527f319af333000000000000000000000000000000000000000000000000000000007bffffffffffffffffffffffffffffffffffffffffffffffffffffffff19166020820180517bffffffffffffffffffffffffffffffffffffffffffffffffffffffff8381831617835250505050611297565b5050565b60008151905060006a636f6e736f6c652e6c6f679050602083016000808483855afa5050505050565b600081519050919050565b600082825260208201905092915050565b60005b838110156112fa5780820151818401526020810190506112df565b60008484015250505050565b6000601f19601f8301169050919050565b6000611322826112c0565b61132c81856112cb565b935061133c8185602086016112dc565b61134581611306565b840191505092915050565b6000602082019050818103600083015261136a8184611317565b905092915050565b6000604051905090565b600080fd5b600080fd5b600073ffffffffffffffffffffffffffffffffffffffff82169050919050565b60006113b182611386565b9050919050565b6113c1816113a6565b81146113cc57600080fd5b50565b6000813590506113de816113b8565b92915050565b6000819050919050565b6113f7816113e4565b811461140257600080fd5b50565b600081359050611414816113ee565b92915050565b600080604083850312156114315761143061137c565b5b600061143f858286016113cf565b925050602061145085828601611405565b9150509250929050565b60008115159050919050565b61146f8161145a565b82525050565b600060208201905061148a6000830184611466565b92915050565b611499816113e4565b82525050565b60006020820190506114b46000830184611490565b92915050565b6000806000606084860312156114d3576114d261137c565b5b60006114e1868287016113cf565b93505060206114f2868287016113cf565b925050604061150386828701611405565b9150509250925092565b600060ff82169050919050565b6115238161150d565b82525050565b600060208201905061153e600083018461151a565b92915050565b60006020828403121561155a5761155961137c565b5b6000611568848285016113cf565b91505092915050565b61157a816113a6565b82525050565b60006020820190506115956000830184611571565b92915050565b600080fd5b600080fd5b7f4e487b7100000000000000000000000000000000000000000000000000000000600052604160045260246000fd5b6115dd82611306565b810181811067ffffffffffffffff821117156115fc576115fb6115a5565b5b80604052505050565b600061160f611372565b905061161b82826115d4565b919050565b600067ffffffffffffffff82111561163b5761163a6115a5565b5b61164482611306565b9050602081019050919050565b82818337600083830152505050565b600061167361166e84611620565b611605565b90508281526020810184848401111561168f5761168e6115a0565b5b61169a848285611651565b509392505050565b600082601f8301126116b7576116b661159b565b5b81356116c7848260208601611660565b91505092915050565b6000602082840312156116e6576116e561137c565b5b600082013567ffffffffffffffff81111561170457611703611381565b5b611710848285016116a2565b91505092915050565b600080604083850312156117305761172f61137c565b5b600061173e858286016113cf565b925050602061174f858286016113cf565b9150509250929050565b60006020828403121561176f5761176e61137c565b5b600061177d84828501611405565b91505092915050565b7f4e487b7100000000000000000000000000000000000000000000000000000000600052602260045260246000fd5b600060028204905060018216806117cd57607f821691505b6020821081036117e0576117df611786565b5b50919050565b7f4e487b7100000000000000000000000000000000000000000000000000000000600052601160045260246000fd5b6000611820826113e4565b915061182b836113e4565b9250828201905080821115611843576118426117e6565b5b92915050565b7f536f72727920796f752061726520706f6f720000000000000000000000000000600082015250565b600061187f6012836112cb565b915061188a82611849565b602082019050919050565b600060208201905081810360008301526118ae81611872565b9050919050565b7f536f727279000000000000000000000000000000000000000000000000000000600082015250565b60006118eb6005836112cb565b91506118f6826118b5565b602082019050919050565b6000602082019050818103600083015261191a816118de565b9050919050565b600061192c826113e4565b9150611937836113e4565b925082820390508181111561194f5761194e6117e6565b5b92915050565b7f43616c6c6572206973206e6f74206f776e657200000000000000000000000000600082015250565b600061198b6013836112cb565b915061199682611955565b602082019050919050565b600060208201905081810360008301526119ba8161197e565b9050919050565b6000819050919050565b6000819050919050565b60006119f06119eb6119e6846119c1565b6119cb565b6113e4565b9050919050565b611a00816119d5565b82525050565b6000602082019050611a1b60008301846119f7565b92915050565b7f4e487b7100000000000000000000000000000000000000000000000000000000600052601260045260246000fd5b6000611a5b826113e4565b9150611a66836113e4565b925082611a7657611a75611a21565b5b828206905092915050565b7f426164206c75636b000000000000000000000000000000000000000000000000600082015250565b6000611ab76008836112cb565b9150611ac282611a81565b602082019050919050565b60006020820190508181036000830152611ae681611aaa565b9050919050565b60008190508160005260206000209050919050565b60006020601f8301049050919050565b600082821b905092915050565b600060088302611b4f7fffffffffffffffffffffffffffffffffffffffffffffffffffffffffffffffff82611b12565b611b598683611b12565b95508019841693508086168417925050509392505050565b6000611b8c611b87611b82846113e4565b6119cb565b6113e4565b9050919050565b6000819050919050565b611ba683611b71565b611bba611bb282611b93565b848454611b1f565b825550505050565b600090565b611bcf611bc2565b611bda818484611b9d565b505050565b5b81811015611bfe57611bf3600082611bc7565b600181019050611be0565b5050565b601f821115611c4357611c1481611aed565b611c1d84611b02565b81016020851015611c2c578190505b611c40611c3885611b02565b830182611bdf565b50505b505050565b600082821c905092915050565b6000611c6660001984600802611c48565b1980831691505092915050565b6000611c7f8383611c55565b9150826002028217905092915050565b611c98826112c0565b67ffffffffffffffff811115611cb157611cb06115a5565b5b611cbb82546117b5565b611cc6828285611c02565b600060209050601f831160018114611cf95760008415611ce7578287015190505b611cf18582611c73565b865550611d59565b601f198416611d0786611aed565b60005b82811015611d2f57848901518255600182019150602085019450602081019050611d0a565b86831015611d4c5784890151611d48601f891682611c55565b8355505b6001600288020188555050505b505050505050565b7f436f6e747261637420646f65736e2774206861766520656e6f7567682062616c60008201527f616e636520746f2073656c6c0000000000000000000000000000000000000000602082015250565b6000611dbd602c836112cb565b9150611dc882611d61565b604082019050919050565b60006020820190508181036000830152611dec81611db0565b9050919050565b60006040820190508181036000830152611e0d8185611317565b9050611e1c6020830184611571565b939250505056fea2646970667358221220eda479529e160c0fe429503a12fcdb89f0e0125210405260b9408295bcdb096464736f6c63430008120033",
  "linkReferences": {},
  "deployedLinkReferences": {}
}