{
  "_format": "hh-sol-artifact-1",
  "contractName": "NFT",
  "sourceName": "contracts/NFT.sol",
  "abi": [
    {
      "inputs": [
        {
          "internalType": "string",
          "name": "name_",
          "type": "string"
        },
        {
          "internalType": "string",
          "name": "symbol_",
          "type": "string"
        }
      ],
      "stateMutability": "nonpayable",
      "type": "constructor"
    },
    {
      "anonymous": false,
      "inputs": [
        {
          "indexed": true,
          "internalType": "address",
          "name": "owner",
          "type": "address"
        },
        {
          "indexed": true,
          "internalType": "address",
          "name": "approved",
          "type": "address"
        },
        {
          "indexed": true,
          "internalType": "uint256",
          "name": "tokenId",
          "type": "uint256"
        }
      ],
      "name": "Approval",
      "type": "event"
    },
    {
      "anonymous": false,
      "inputs": [
        {
          "indexed": true,
          "internalType": "address",
          "name": "owner",
          "type": "address"
        },
        {
          "indexed": true,
          "internalType": "address",
          "name": "operator",
          "type": "address"
        },
        {
          "indexed": false,
          "internalType": "bool",
          "name": "approved",
          "type": "bool"
        }
      ],
      "name": "ApprovalForAll",
      "type": "event"
    },
    {
      "anonymous": false,
      "inputs": [
        {
          "indexed": true,
          "internalType": "address",
          "name": "previousOwner",
          "type": "address"
        },
        {
          "indexed": true,
          "internalType": "address",
          "name": "newOwner",
          "type": "address"
        }
      ],
      "name": "OwnershipTransferred",
      "type": "event"
    },
    {
      "anonymous": false,
      "inputs": [
        {
          "indexed": true,
          "internalType": "address",
          "name": "from",
          "type": "address"
        },
        {
          "indexed": true,
          "internalType": "address",
          "name": "to",
          "type": "address"
        },
        {
          "indexed": true,
          "internalType": "uint256",
          "name": "tokenId",
          "type": "uint256"
        }
      ],
      "name": "Transfer",
      "type": "event"
    },
    {
      "inputs": [
        {
          "internalType": "address",
          "name": "to",
          "type": "address"
        },
        {
          "internalType": "uint256",
          "name": "tokenId",
          "type": "uint256"
        }
      ],
      "name": "approve",
      "outputs": [],
      "stateMutability": "nonpayable",
      "type": "function"
    },
    {
      "inputs": [
        {
          "internalType": "address",
          "name": "owner",
          "type": "address"
        }
      ],
      "name": "balanceOf",
      "outputs": [
        {
          "internalType": "uint256",
          "name": "",
          "type": "uint256"
        }
      ],
      "stateMutability": "view",
      "type": "function"
    },
    {
      "inputs": [
        {
          "internalType": "uint256",
          "name": "tokenId",
          "type": "uint256"
        }
      ],
      "name": "getApproved",
      "outputs": [
        {
          "internalType": "address",
          "name": "",
          "type": "address"
        }
      ],
      "stateMutability": "view",
      "type": "function"
    },
    {
      "inputs": [
        {
          "internalType": "address",
          "name": "owner",
          "type": "address"
        },
        {
          "internalType": "address",
          "name": "operator",
          "type": "address"
        }
      ],
      "name": "isApprovedForAll",
      "outputs": [
        {
          "internalType": "bool",
          "name": "",
          "type": "bool"
        }
      ],
      "stateMutability": "view",
      "type": "function"
    },
    {
      "inputs": [
        {
          "internalType": "address",
          "name": "to_",
          "type": "address"
        },
        {
          "internalType": "uint256",
          "name": "tokenId_",
          "type": "uint256"
        }
      ],
      "name": "mint",
      "outputs": [],
      "stateMutability": "nonpayable",
      "type": "function"
    },
    {
      "inputs": [],
      "name": "name",
      "outputs": [
        {
          "internalType": "string",
          "name": "",
          "type": "string"
        }
      ],
      "stateMutability": "view",
      "type": "function"
    },
    {
      "inputs": [],
      "name": "owner",
      "outputs": [
        {
          "internalType": "address",
          "name": "",
          "type": "address"
        }
      ],
      "stateMutability": "view",
      "type": "function"
    },
    {
      "inputs": [
        {
          "internalType": "uint256",
          "name": "tokenId",
          "type": "uint256"
        }
      ],
      "name": "ownerOf",
      "outputs": [
        {
          "internalType": "address",
          "name": "",
          "type": "address"
        }
      ],
      "stateMutability": "view",
      "type": "function"
    },
    {
      "inputs": [],
      "name": "renounceOwnership",
      "outputs": [],
      "stateMutability": "nonpayable",
      "type": "function"
    },
    {
      "inputs": [
        {
          "internalType": "address",
          "name": "from",
          "type": "address"
        },
        {
          "internalType": "address",
          "name": "to",
          "type": "address"
        },
        {
          "internalType": "uint256",
          "name": "tokenId",
          "type": "uint256"
        }
      ],
      "name": "safeTransferFrom",
      "outputs": [],
      "stateMutability": "nonpayable",
      "type": "function"
    },
    {
      "inputs": [
        {
          "internalType": "address",
          "name": "from",
          "type": "address"
        },
        {
          "internalType": "address",
          "name": "to",
          "type": "address"
        },
        {
          "internalType": "uint256",
          "name": "tokenId",
          "type": "uint256"
        },
        {
          "internalType": "bytes",
          "name": "data",
          "type": "bytes"
        }
      ],
      "name": "safeTransferFrom",
      "outputs": [],
      "stateMutability": "nonpayable",
      "type": "function"
    },
    {
      "inputs": [
        {
          "internalType": "address",
          "name": "operator",
          "type": "address"
        },
        {
          "internalType": "bool",
          "name": "approved",
          "type": "bool"
        }
      ],
      "name": "setApprovalForAll",
      "outputs": [],
      "stateMutability": "nonpayable",
      "type": "function"
    },
    {
      "inputs": [
        {
          "internalType": "string",
          "name": "uri",
          "type": "string"
        },
        {
          "internalType": "uint256",
          "name": "tokenId_",
          "type": "uint256"
        }
      ],
      "name": "setTokenURI",
      "outputs": [],
      "stateMutability": "nonpayable",
      "type": "function"
    },
    {
      "inputs": [
        {
          "internalType": "bytes4",
          "name": "interfaceId",
          "type": "bytes4"
        }
      ],
      "name": "supportsInterface",
      "outputs": [
        {
          "internalType": "bool",
          "name": "",
          "type": "bool"
        }
      ],
      "stateMutability": "view",
      "type": "function"
    },
    {
      "inputs": [],
      "name": "symbol",
      "outputs": [
        {
          "internalType": "string",
          "name": "",
          "type": "string"
        }
      ],
      "stateMutability": "view",
      "type": "function"
    },
    {
      "inputs": [
        {
          "internalType": "uint256",
          "name": "tokenId_",
          "type": "uint256"
        }
      ],
      "name": "tokenURI",
      "outputs": [
        {
          "internalType": "string",
          "name": "",
          "type": "string"
        }
      ],
      "stateMutability": "view",
      "type": "function"
    },
    {
      "inputs": [
        {
          "internalType": "uint256",
          "name": "",
          "type": "uint256"
        }
      ],
      "name": "tokenURIs",
      "outputs": [
        {
          "internalType": "string",
          "name": "",
          "type": "string"
        }
      ],
      "stateMutability": "view",
      "type": "function"
    },
    {
      "inputs": [
        {
          "internalType": "address",
          "name": "from",
          "type": "address"
        },
        {
          "internalType": "address",
          "name": "to",
          "type": "address"
        },
        {
          "internalType": "uint256",
          "name": "tokenId",
          "type": "uint256"
        }
      ],
      "name": "transferFrom",
      "outputs": [],
      "stateMutability": "nonpayable",
      "type": "function"
    },
    {
      "inputs": [
        {
          "internalType": "address",
          "name": "newOwner",
          "type": "address"
        }
      ],
      "name": "transferOwnership",
      "outputs": [],
      "stateMutability": "nonpayable",
      "type": "function"
    },
    {
      "inputs": [],
      "name": "withdraw",
      "outputs": [],
      "stateMutability": "nonpayable",
      "type": "function"
    }
  ],
  "bytecode": "0x60806040523480156200001157600080fd5b5060405162003219380380620032198339818101604052810190620000379190620002e6565b8181620000596200004d6200008760201b60201c565b6200008f60201b60201c565b81600190816200006a9190620005b6565b5080600290816200007c9190620005b6565b50505050506200069d565b600033905090565b60008060009054906101000a900473ffffffffffffffffffffffffffffffffffffffff169050816000806101000a81548173ffffffffffffffffffffffffffffffffffffffff021916908373ffffffffffffffffffffffffffffffffffffffff1602179055508173ffffffffffffffffffffffffffffffffffffffff168173ffffffffffffffffffffffffffffffffffffffff167f8be0079c531659141344cd1fd0a4f28419497f9722a3daafe3b4186f6b6457e060405160405180910390a35050565b6000604051905090565b600080fd5b600080fd5b600080fd5b600080fd5b6000601f19601f8301169050919050565b7f4e487b7100000000000000000000000000000000000000000000000000000000600052604160045260246000fd5b620001bc8262000171565b810181811067ffffffffffffffff82111715620001de57620001dd62000182565b5b80604052505050565b6000620001f362000153565b9050620002018282620001b1565b919050565b600067ffffffffffffffff82111562000224576200022362000182565b5b6200022f8262000171565b9050602081019050919050565b60005b838110156200025c5780820151818401526020810190506200023f565b60008484015250505050565b60006200027f620002798462000206565b620001e7565b9050828152602081018484840111156200029e576200029d6200016c565b5b620002ab8482856200023c565b509392505050565b600082601f830112620002cb57620002ca62000167565b5b8151620002dd84826020860162000268565b91505092915050565b600080604083850312156200030057620002ff6200015d565b5b600083015167ffffffffffffffff81111562000321576200032062000162565b5b6200032f85828601620002b3565b925050602083015167ffffffffffffffff81111562000353576200035262000162565b5b6200036185828601620002b3565b9150509250929050565b600081519050919050565b7f4e487b7100000000000000000000000000000000000000000000000000000000600052602260045260246000fd5b60006002820490506001821680620003be57607f821691505b602082108103620003d457620003d362000376565b5b50919050565b60008190508160005260206000209050919050565b60006020601f8301049050919050565b600082821b905092915050565b6000600883026200043e7fffffffffffffffffffffffffffffffffffffffffffffffffffffffffffffffff82620003ff565b6200044a8683620003ff565b95508019841693508086168417925050509392505050565b6000819050919050565b6000819050919050565b600062000497620004916200048b8462000462565b6200046c565b62000462565b9050919050565b6000819050919050565b620004b38362000476565b620004cb620004c2826200049e565b8484546200040c565b825550505050565b600090565b620004e2620004d3565b620004ef818484620004a8565b505050565b5b8181101562000517576200050b600082620004d8565b600181019050620004f5565b5050565b601f82111562000566576200053081620003da565b6200053b84620003ef565b810160208510156200054b578190505b620005636200055a85620003ef565b830182620004f4565b50505b505050565b600082821c905092915050565b60006200058b600019846008026200056b565b1980831691505092915050565b6000620005a6838362000578565b9150826002028217905092915050565b620005c1826200036b565b67ffffffffffffffff811115620005dd57620005dc62000182565b5b620005e98254620003a5565b620005f68282856200051b565b600060209050601f8311600181146200062e576000841562000619578287015190505b62000625858262000598565b86555062000695565b601f1984166200063e86620003da565b60005b82811015620006685784890151825560018201915060208501945060208101905062000641565b8683101562000688578489015162000684601f89168262000578565b8355505b6001600288020188555050505b505050505050565b612b6c80620006ad6000396000f3fe608060405234801561001057600080fd5b506004361061012c5760003560e01c80636c8b703f116100ad578063a22cb46511610071578063a22cb4651461031b578063b88d4fde14610337578063c87b56dd14610353578063e985e9c514610383578063f2fde38b146103b35761012c565b80636c8b703f1461027557806370a08231146102a5578063715018a6146102d55780638da5cb5b146102df57806395d89b41146102fd5761012c565b806323b872dd116100f457806323b872dd146101e75780633ccfd60b1461020357806340c10f191461020d57806342842e0e146102295780636352211e146102455761012c565b806301ffc9a71461013157806306fdde0314610161578063081812fc1461017f578063095ea7b3146101af57806309a3beef146101cb575b600080fd5b61014b60048036038101906101469190611a12565b6103cf565b6040516101589190611a5a565b60405180910390f35b6101696104b1565b6040516101769190611b05565b60405180910390f35b61019960048036038101906101949190611b5d565b610543565b6040516101a69190611bcb565b60405180910390f35b6101c960048036038101906101c49190611c12565b610589565b005b6101e560048036038101906101e09190611d87565b6106a0565b005b61020160048036038101906101fc9190611de3565b6106cd565b005b61020b61072d565b005b61022760048036038101906102229190611c12565b6107b8565b005b610243600480360381019061023e9190611de3565b6107ce565b005b61025f600480360381019061025a9190611b5d565b6107ee565b60405161026c9190611bcb565b60405180910390f35b61028f600480360381019061028a9190611b5d565b610874565b60405161029c9190611b05565b60405180910390f35b6102bf60048036038101906102ba9190611e36565b610914565b6040516102cc9190611e72565b60405180910390f35b6102dd6109cb565b005b6102e76109df565b6040516102f49190611bcb565b60405180910390f35b610305610a08565b6040516103129190611b05565b60405180910390f35b61033560048036038101906103309190611eb9565b610a9a565b005b610351600480360381019061034c9190611f9a565b610ab0565b005b61036d60048036038101906103689190611b5d565b610b12565b60405161037a9190611b05565b60405180910390f35b61039d6004803603810190610398919061201d565b610bb7565b6040516103aa9190611a5a565b60405180910390f35b6103cd60048036038101906103c89190611e36565b610c4b565b005b60007f80ac58cd000000000000000000000000000000000000000000000000000000007bffffffffffffffffffffffffffffffffffffffffffffffffffffffff1916827bffffffffffffffffffffffffffffffffffffffffffffffffffffffff1916148061049a57507f5b5e139f000000000000000000000000000000000000000000000000000000007bffffffffffffffffffffffffffffffffffffffffffffffffffffffff1916827bffffffffffffffffffffffffffffffffffffffffffffffffffffffff1916145b806104aa57506104a982610cce565b5b9050919050565b6060600180546104c09061208c565b80601f01602080910402602001604051908101604052809291908181526020018280546104ec9061208c565b80156105395780601f1061050e57610100808354040283529160200191610539565b820191906000526020600020905b81548152906001019060200180831161051c57829003601f168201915b5050505050905090565b600061054e82610d38565b6005600083815260200190815260200160002060009054906101000a900473ffffffffffffffffffffffffffffffffffffffff169050919050565b6000610594826107ee565b90508073ffffffffffffffffffffffffffffffffffffffff168373ffffffffffffffffffffffffffffffffffffffff1603610604576040517f08c379a00000000000000000000000000000000000000000000000000000000081526004016105fb9061212f565b60405180910390fd5b8073ffffffffffffffffffffffffffffffffffffffff16610623610d83565b73ffffffffffffffffffffffffffffffffffffffff16148061065257506106518161064c610d83565b610bb7565b5b610691576040517f08c379a0000000000000000000000000000000000000000000000000000000008152600401610688906121c1565b60405180910390fd5b61069b8383610d8b565b505050565b6106a8610e44565b816007600083815260200190815260200160002090816106c8919061238d565b505050565b6106de6106d8610d83565b82610ec2565b61071d576040517f08c379a0000000000000000000000000000000000000000000000000000000008152600401610714906124d1565b60405180910390fd5b610728838383610f57565b505050565b610735610e44565b600061073f6109df565b73ffffffffffffffffffffffffffffffffffffffff166108fc479081150290604051600060405180830381858888f193505050509050806107b5576040517f08c379a00000000000000000000000000000000000000000000000000000000081526004016107ac9061253d565b60405180910390fd5b50565b6107c0610e44565b6107ca8282611250565b5050565b6107e983838360405180602001604052806000815250610ab0565b505050565b6000806107fa8361126e565b9050600073ffffffffffffffffffffffffffffffffffffffff168173ffffffffffffffffffffffffffffffffffffffff160361086b576040517f08c379a0000000000000000000000000000000000000000000000000000000008152600401610862906125a9565b60405180910390fd5b80915050919050565b600760205280600052604060002060009150905080546108939061208c565b80601f01602080910402602001604051908101604052809291908181526020018280546108bf9061208c565b801561090c5780601f106108e15761010080835404028352916020019161090c565b820191906000526020600020905b8154815290600101906020018083116108ef57829003601f168201915b505050505081565b60008073ffffffffffffffffffffffffffffffffffffffff168273ffffffffffffffffffffffffffffffffffffffff1603610984576040517f08c379a000000000000000000000000000000000000000000000000000000000815260040161097b9061263b565b60405180910390fd5b600460008373ffffffffffffffffffffffffffffffffffffffff1673ffffffffffffffffffffffffffffffffffffffff168152602001908152602001600020549050919050565b6109d3610e44565b6109dd60006112ab565b565b60008060009054906101000a900473ffffffffffffffffffffffffffffffffffffffff16905090565b606060028054610a179061208c565b80601f0160208091040260200160405190810160405280929190818152602001828054610a439061208c565b8015610a905780601f10610a6557610100808354040283529160200191610a90565b820191906000526020600020905b815481529060010190602001808311610a7357829003601f168201915b5050505050905090565b610aac610aa5610d83565b838361136f565b5050565b610ac1610abb610d83565b83610ec2565b610b00576040517f08c379a0000000000000000000000000000000000000000000000000000000008152600401610af7906124d1565b60405180910390fd5b610b0c848484846114db565b50505050565b6060600760008381526020019081526020016000208054610b329061208c565b80601f0160208091040260200160405190810160405280929190818152602001828054610b5e9061208c565b8015610bab5780601f10610b8057610100808354040283529160200191610bab565b820191906000526020600020905b815481529060010190602001808311610b8e57829003601f168201915b50505050509050919050565b6000600660008473ffffffffffffffffffffffffffffffffffffffff1673ffffffffffffffffffffffffffffffffffffffff16815260200190815260200160002060008373ffffffffffffffffffffffffffffffffffffffff1673ffffffffffffffffffffffffffffffffffffffff16815260200190815260200160002060009054906101000a900460ff16905092915050565b610c53610e44565b600073ffffffffffffffffffffffffffffffffffffffff168173ffffffffffffffffffffffffffffffffffffffff1603610cc2576040517f08c379a0000000000000000000000000000000000000000000000000000000008152600401610cb9906126cd565b60405180910390fd5b610ccb816112ab565b50565b60007f01ffc9a7000000000000000000000000000000000000000000000000000000007bffffffffffffffffffffffffffffffffffffffffffffffffffffffff1916827bffffffffffffffffffffffffffffffffffffffffffffffffffffffff1916149050919050565b610d4181611537565b610d80576040517f08c379a0000000000000000000000000000000000000000000000000000000008152600401610d77906125a9565b60405180910390fd5b50565b600033905090565b816005600083815260200190815260200160002060006101000a81548173ffffffffffffffffffffffffffffffffffffffff021916908373ffffffffffffffffffffffffffffffffffffffff160217905550808273ffffffffffffffffffffffffffffffffffffffff16610dfe836107ee565b73ffffffffffffffffffffffffffffffffffffffff167f8c5be1e5ebec7d5bd14f71427d1e84f3dd0314c0f7b2291e5b200ac8c7c3b92560405160405180910390a45050565b610e4c610d83565b73ffffffffffffffffffffffffffffffffffffffff16610e6a6109df565b73ffffffffffffffffffffffffffffffffffffffff1614610ec0576040517f08c379a0000000000000000000000000000000000000000000000000000000008152600401610eb790612739565b60405180910390fd5b565b600080610ece836107ee565b90508073ffffffffffffffffffffffffffffffffffffffff168473ffffffffffffffffffffffffffffffffffffffff161480610f105750610f0f8185610bb7565b5b80610f4e57508373ffffffffffffffffffffffffffffffffffffffff16610f3684610543565b73ffffffffffffffffffffffffffffffffffffffff16145b91505092915050565b8273ffffffffffffffffffffffffffffffffffffffff16610f77826107ee565b73ffffffffffffffffffffffffffffffffffffffff1614610fcd576040517f08c379a0000000000000000000000000000000000000000000000000000000008152600401610fc4906127cb565b60405180910390fd5b600073ffffffffffffffffffffffffffffffffffffffff168273ffffffffffffffffffffffffffffffffffffffff160361103c576040517f08c379a00000000000000000000000000000000000000000000000000000000081526004016110339061285d565b60405180910390fd5b6110498383836001611578565b8273ffffffffffffffffffffffffffffffffffffffff16611069826107ee565b73ffffffffffffffffffffffffffffffffffffffff16146110bf576040517f08c379a00000000000000000000000000000000000000000000000000000000081526004016110b6906127cb565b60405180910390fd5b6005600082815260200190815260200160002060006101000a81549073ffffffffffffffffffffffffffffffffffffffff02191690556001600460008573ffffffffffffffffffffffffffffffffffffffff1673ffffffffffffffffffffffffffffffffffffffff168152602001908152602001600020600082825403925050819055506001600460008473ffffffffffffffffffffffffffffffffffffffff1673ffffffffffffffffffffffffffffffffffffffff16815260200190815260200160002060008282540192505081905550816003600083815260200190815260200160002060006101000a81548173ffffffffffffffffffffffffffffffffffffffff021916908373ffffffffffffffffffffffffffffffffffffffff160217905550808273ffffffffffffffffffffffffffffffffffffffff168473ffffffffffffffffffffffffffffffffffffffff167fddf252ad1be2c89b69c2b068fc378daa952ba7f163c4a11628f55a4df523b3ef60405160405180910390a461124b838383600161157e565b505050565b61126a828260405180602001604052806000815250611584565b5050565b60006003600083815260200190815260200160002060009054906101000a900473ffffffffffffffffffffffffffffffffffffffff169050919050565b60008060009054906101000a900473ffffffffffffffffffffffffffffffffffffffff169050816000806101000a81548173ffffffffffffffffffffffffffffffffffffffff021916908373ffffffffffffffffffffffffffffffffffffffff1602179055508173ffffffffffffffffffffffffffffffffffffffff168173ffffffffffffffffffffffffffffffffffffffff167f8be0079c531659141344cd1fd0a4f28419497f9722a3daafe3b4186f6b6457e060405160405180910390a35050565b8173ffffffffffffffffffffffffffffffffffffffff168373ffffffffffffffffffffffffffffffffffffffff16036113dd576040517f08c379a00000000000000000000000000000000000000000000000000000000081526004016113d4906128c9565b60405180910390fd5b80600660008573ffffffffffffffffffffffffffffffffffffffff1673ffffffffffffffffffffffffffffffffffffffff16815260200190815260200160002060008473ffffffffffffffffffffffffffffffffffffffff1673ffffffffffffffffffffffffffffffffffffffff16815260200190815260200160002060006101000a81548160ff0219169083151502179055508173ffffffffffffffffffffffffffffffffffffffff168373ffffffffffffffffffffffffffffffffffffffff167f17307eab39ab6107e8899845ad3d59bd9653f200f220920489ca2b5937696c31836040516114ce9190611a5a565b60405180910390a3505050565b6114e6848484610f57565b6114f2848484846115df565b611531576040517f08c379a00000000000000000000000000000000000000000000000000000000081526004016115289061295b565b60405180910390fd5b50505050565b60008073ffffffffffffffffffffffffffffffffffffffff166115598361126e565b73ffffffffffffffffffffffffffffffffffffffff1614159050919050565b50505050565b50505050565b61158e8383611766565b61159b60008484846115df565b6115da576040517f08c379a00000000000000000000000000000000000000000000000000000000081526004016115d19061295b565b60405180910390fd5b505050565b60006116008473ffffffffffffffffffffffffffffffffffffffff16611983565b15611759578373ffffffffffffffffffffffffffffffffffffffff1663150b7a02611629610d83565b8786866040518563ffffffff1660e01b815260040161164b94939291906129d0565b6020604051808303816000875af192505050801561168757506040513d601f19601f820116820180604052508101906116849190612a31565b60015b611709573d80600081146116b7576040519150601f19603f3d011682016040523d82523d6000602084013e6116bc565b606091505b506000815103611701576040517f08c379a00000000000000000000000000000000000000000000000000000000081526004016116f89061295b565b60405180910390fd5b805181602001fd5b63150b7a0260e01b7bffffffffffffffffffffffffffffffffffffffffffffffffffffffff1916817bffffffffffffffffffffffffffffffffffffffffffffffffffffffff19161491505061175e565b600190505b949350505050565b600073ffffffffffffffffffffffffffffffffffffffff168273ffffffffffffffffffffffffffffffffffffffff16036117d5576040517f08c379a00000000000000000000000000000000000000000000000000000000081526004016117cc90612aaa565b60405180910390fd5b6117de81611537565b1561181e576040517f08c379a000000000000000000000000000000000000000000000000000000000815260040161181590612b16565b60405180910390fd5b61182c600083836001611578565b61183581611537565b15611875576040517f08c379a000000000000000000000000000000000000000000000000000000000815260040161186c90612b16565b60405180910390fd5b6001600460008473ffffffffffffffffffffffffffffffffffffffff1673ffffffffffffffffffffffffffffffffffffffff16815260200190815260200160002060008282540192505081905550816003600083815260200190815260200160002060006101000a81548173ffffffffffffffffffffffffffffffffffffffff021916908373ffffffffffffffffffffffffffffffffffffffff160217905550808273ffffffffffffffffffffffffffffffffffffffff16600073ffffffffffffffffffffffffffffffffffffffff167fddf252ad1be2c89b69c2b068fc378daa952ba7f163c4a11628f55a4df523b3ef60405160405180910390a461197f60008383600161157e565b5050565b6000808273ffffffffffffffffffffffffffffffffffffffff163b119050919050565b6000604051905090565b600080fd5b600080fd5b60007fffffffff0000000000000000000000000000000000000000000000000000000082169050919050565b6119ef816119ba565b81146119fa57600080fd5b50565b600081359050611a0c816119e6565b92915050565b600060208284031215611a2857611a276119b0565b5b6000611a36848285016119fd565b91505092915050565b60008115159050919050565b611a5481611a3f565b82525050565b6000602082019050611a6f6000830184611a4b565b92915050565b600081519050919050565b600082825260208201905092915050565b60005b83811015611aaf578082015181840152602081019050611a94565b60008484015250505050565b6000601f19601f8301169050919050565b6000611ad782611a75565b611ae18185611a80565b9350611af1818560208601611a91565b611afa81611abb565b840191505092915050565b60006020820190508181036000830152611b1f8184611acc565b905092915050565b6000819050919050565b611b3a81611b27565b8114611b4557600080fd5b50565b600081359050611b5781611b31565b92915050565b600060208284031215611b7357611b726119b0565b5b6000611b8184828501611b48565b91505092915050565b600073ffffffffffffffffffffffffffffffffffffffff82169050919050565b6000611bb582611b8a565b9050919050565b611bc581611baa565b82525050565b6000602082019050611be06000830184611bbc565b92915050565b611bef81611baa565b8114611bfa57600080fd5b50565b600081359050611c0c81611be6565b92915050565b60008060408385031215611c2957611c286119b0565b5b6000611c3785828601611bfd565b9250506020611c4885828601611b48565b9150509250929050565b600080fd5b600080fd5b7f4e487b7100000000000000000000000000000000000000000000000000000000600052604160045260246000fd5b611c9482611abb565b810181811067ffffffffffffffff82111715611cb357611cb2611c5c565b5b80604052505050565b6000611cc66119a6565b9050611cd28282611c8b565b919050565b600067ffffffffffffffff821115611cf257611cf1611c5c565b5b611cfb82611abb565b9050602081019050919050565b82818337600083830152505050565b6000611d2a611d2584611cd7565b611cbc565b905082815260208101848484011115611d4657611d45611c57565b5b611d51848285611d08565b509392505050565b600082601f830112611d6e57611d6d611c52565b5b8135611d7e848260208601611d17565b91505092915050565b60008060408385031215611d9e57611d9d6119b0565b5b600083013567ffffffffffffffff811115611dbc57611dbb6119b5565b5b611dc885828601611d59565b9250506020611dd985828601611b48565b9150509250929050565b600080600060608486031215611dfc57611dfb6119b0565b5b6000611e0a86828701611bfd565b9350506020611e1b86828701611bfd565b9250506040611e2c86828701611b48565b9150509250925092565b600060208284031215611e4c57611e4b6119b0565b5b6000611e5a84828501611bfd565b91505092915050565b611e6c81611b27565b82525050565b6000602082019050611e876000830184611e63565b92915050565b611e9681611a3f565b8114611ea157600080fd5b50565b600081359050611eb381611e8d565b92915050565b60008060408385031215611ed057611ecf6119b0565b5b6000611ede85828601611bfd565b9250506020611eef85828601611ea4565b9150509250929050565b600067ffffffffffffffff821115611f1457611f13611c5c565b5b611f1d82611abb565b9050602081019050919050565b6000611f3d611f3884611ef9565b611cbc565b905082815260208101848484011115611f5957611f58611c57565b5b611f64848285611d08565b509392505050565b600082601f830112611f8157611f80611c52565b5b8135611f91848260208601611f2a565b91505092915050565b60008060008060808587031215611fb457611fb36119b0565b5b6000611fc287828801611bfd565b9450506020611fd387828801611bfd565b9350506040611fe487828801611b48565b925050606085013567ffffffffffffffff811115612005576120046119b5565b5b61201187828801611f6c565b91505092959194509250565b60008060408385031215612034576120336119b0565b5b600061204285828601611bfd565b925050602061205385828601611bfd565b9150509250929050565b7f4e487b7100000000000000000000000000000000000000000000000000000000600052602260045260246000fd5b600060028204905060018216806120a457607f821691505b6020821081036120b7576120b661205d565b5b50919050565b7f4552433732313a20617070726f76616c20746f2063757272656e74206f776e6560008201527f7200000000000000000000000000000000000000000000000000000000000000602082015250565b6000612119602183611a80565b9150612124826120bd565b604082019050919050565b600060208201905081810360008301526121488161210c565b9050919050565b7f4552433732313a20617070726f76652063616c6c6572206973206e6f7420746f60008201527f6b656e206f776e6572206f7220617070726f76656420666f7220616c6c000000602082015250565b60006121ab603d83611a80565b91506121b68261214f565b604082019050919050565b600060208201905081810360008301526121da8161219e565b9050919050565b60008190508160005260206000209050919050565b60006020601f8301049050919050565b600082821b905092915050565b6000600883026122437fffffffffffffffffffffffffffffffffffffffffffffffffffffffffffffffff82612206565b61224d8683612206565b95508019841693508086168417925050509392505050565b6000819050919050565b600061228a61228561228084611b27565b612265565b611b27565b9050919050565b6000819050919050565b6122a48361226f565b6122b86122b082612291565b848454612213565b825550505050565b600090565b6122cd6122c0565b6122d881848461229b565b505050565b5b818110156122fc576122f16000826122c5565b6001810190506122de565b5050565b601f82111561234157612312816121e1565b61231b846121f6565b8101602085101561232a578190505b61233e612336856121f6565b8301826122dd565b50505b505050565b600082821c905092915050565b600061236460001984600802612346565b1980831691505092915050565b600061237d8383612353565b9150826002028217905092915050565b61239682611a75565b67ffffffffffffffff8111156123af576123ae611c5c565b5b6123b9825461208c565b6123c4828285612300565b600060209050601f8311600181146123f757600084156123e5578287015190505b6123ef8582612371565b865550612457565b601f198416612405866121e1565b60005b8281101561242d57848901518255600182019150602085019450602081019050612408565b8683101561244a5784890151612446601f891682612353565b8355505b6001600288020188555050505b505050505050565b7f4552433732313a2063616c6c6572206973206e6f7420746f6b656e206f776e6560008201527f72206f7220617070726f76656400000000000000000000000000000000000000602082015250565b60006124bb602d83611a80565b91506124c68261245f565b604082019050919050565b600060208201905081810360008301526124ea816124ae565b9050919050565b7f4661696c656420746f2073656e64204574686572000000000000000000000000600082015250565b6000612527601483611a80565b9150612532826124f1565b602082019050919050565b600060208201905081810360008301526125568161251a565b9050919050565b7f4552433732313a20696e76616c696420746f6b656e2049440000000000000000600082015250565b6000612593601883611a80565b915061259e8261255d565b602082019050919050565b600060208201905081810360008301526125c281612586565b9050919050565b7f4552433732313a2061646472657373207a65726f206973206e6f74206120766160008201527f6c6964206f776e65720000000000000000000000000000000000000000000000602082015250565b6000612625602983611a80565b9150612630826125c9565b604082019050919050565b6000602082019050818103600083015261265481612618565b9050919050565b7f4f776e61626c653a206e6577206f776e657220697320746865207a65726f206160008201527f6464726573730000000000000000000000000000000000000000000000000000602082015250565b60006126b7602683611a80565b91506126c28261265b565b604082019050919050565b600060208201905081810360008301526126e6816126aa565b9050919050565b7f4f776e61626c653a2063616c6c6572206973206e6f7420746865206f776e6572600082015250565b6000612723602083611a80565b915061272e826126ed565b602082019050919050565b6000602082019050818103600083015261275281612716565b9050919050565b7f4552433732313a207472616e736665722066726f6d20696e636f72726563742060008201527f6f776e6572000000000000000000000000000000000000000000000000000000602082015250565b60006127b5602583611a80565b91506127c082612759565b604082019050919050565b600060208201905081810360008301526127e4816127a8565b9050919050565b7f4552433732313a207472616e7366657220746f20746865207a65726f2061646460008201527f7265737300000000000000000000000000000000000000000000000000000000602082015250565b6000612847602483611a80565b9150612852826127eb565b604082019050919050565b600060208201905081810360008301526128768161283a565b9050919050565b7f4552433732313a20617070726f766520746f2063616c6c657200000000000000600082015250565b60006128b3601983611a80565b91506128be8261287d565b602082019050919050565b600060208201905081810360008301526128e2816128a6565b9050919050565b7f4552433732313a207472616e7366657220746f206e6f6e20455243373231526560008201527f63656976657220696d706c656d656e7465720000000000000000000000000000602082015250565b6000612945603283611a80565b9150612950826128e9565b604082019050919050565b6000602082019050818103600083015261297481612938565b9050919050565b600081519050919050565b600082825260208201905092915050565b60006129a28261297b565b6129ac8185612986565b93506129bc818560208601611a91565b6129c581611abb565b840191505092915050565b60006080820190506129e56000830187611bbc565b6129f26020830186611bbc565b6129ff6040830185611e63565b8181036060830152612a118184612997565b905095945050505050565b600081519050612a2b816119e6565b92915050565b600060208284031215612a4757612a466119b0565b5b6000612a5584828501612a1c565b91505092915050565b7f4552433732313a206d696e7420746f20746865207a65726f2061646472657373600082015250565b6000612a94602083611a80565b9150612a9f82612a5e565b602082019050919050565b60006020820190508181036000830152612ac381612a87565b9050919050565b7f4552433732313a20746f6b656e20616c7265616479206d696e74656400000000600082015250565b6000612b00601c83611a80565b9150612b0b82612aca565b602082019050919050565b60006020820190508181036000830152612b2f81612af3565b905091905056fea2646970667358221220d27af1f5282dcfbe93aac738e4a8ac909f1ef7d3a0c41d6d8c0eee58e228205064736f6c63430008130033",
  "linkReferences": {},
  "deployedLinkReferences": {}
}